{
  "contractName": "EventEmitter",
  "abi": [
    {
      "anonymous": false,
      "inputs": [
        {
          "indexed": false,
          "name": "message",
          "type": "string"
        }
      ],
      "name": "Reply",
      "type": "event"
    },
    {
      "constant": false,
      "inputs": [
        {
          "name": "message",
          "type": "string"
        }
      ],
      "name": "greet",
      "outputs": [],
      "payable": false,
      "stateMutability": "nonpayable",
      "type": "function"
    }
  ],
  "bytecode": "0x608060405234801561001057600080fd5b5061017a806100206000396000f300608060405260043610610041576000357c0100000000000000000000000000000000000000000000000000000000900463ffffffff168063ead710c414610046575b600080fd5b34801561005257600080fd5b506100ad600480360381019080803590602001908201803590602001908080601f01602080910402602001604051908101604052809392919081815260200183838082843782019150505050505091929192905050506100af565b005b7f50c511506f150be236f4551ae78551f5b4d35e9c11dff0f19541f0d51baaeb5d816040518080602001828103825283818151815260200191508051906020019080838360005b838110156101115780820151818401526020810190506100f6565b50505050905090810190601f16801561013e5780820380516001836020036101000a031916815260200191505b509250505060405180910390a1505600a165627a7a72305820db5a3bf5d2b34a4c9dfb2668ea0ee992e1e613867cedf5dbd1dd5d2996ed7a5f0029",
  "source": "pragma solidity ^0.4.18;\n\ncontract EventEmitter {\n    event Reply(string message);\n\n    function greet(string message) public {\n        emit Reply(message);\n    }\n}",
  "sourcePath": "/Users/manabo/Projects/ethpubsub/contracts/EventEmitter.sol",
  "compiler": {
    "name": "solc",
    "version": "0.4.24+commit.e67f0147.Emscripten.clang"
  },
  "schemaVersion": "2.0.1",
  "updatedAt": "2018-12-17T03:13:59.598Z"
}